:020000040800F2
:1000000000000120D5010008250200082502000893
:100010002502000825020008250200080000000053
:1000200000000000000000000000000025020008A1
:10003000250200080000000025020008A1020008B7
:1000400025020008250200082502000825020008F4
:1000500025020008250200082502000825020008E4
:1000600025020008250200082502000825020008D4
:1000700025020008250200082502000825020008C4
:1000800025020008250200082502000825020008B4
:1000900025020008250200082502000825020008A4
:1000A0002502000825020008250200082502000894
:1000B0002502000825020008250200082502000884
:1000C0002502000825020008250200082502000874
:1000D0002502000825020008250200082502000864
:1000E0002502000825020008250200082502000854
:1000F0002502000825020008250200082502000844
:100100002502000800000000000000002502000891
:100110002502000825020008250200082502000823
:100120002502000825020008250200082502000813
:100130002502000825020008000000000000000061
:100140002502000825020008250200080000000022
:10015000000000000000000000000000000000009F
:1001600025020008250200082502000825020008D3
:1001700025020008250200082502000825020008C3
:100180002502000825020008000000000000000011
:04019000250200083C
:1001940010B5054C237833B9044B13B10448AFF3BD
:1001A40000800123237010BD040000200000000023
:1001B4006003000808B5034B1BB103490348AFF3C0
:1001C400008008BD00000000080000206003000853
:1001D400DFF834D0002103E00C4B5B58435004316A
:1001E4000B480C4B42189A42F6D30B4A02E0002308
:1001F40042F8043B094B9A42F9D300F013F800F09B
:1002040089F800F067F8FEE7000001208003000889
:10021400000000200400002004000020240000202E
:10022400FEE70000124B1A6842F001021A60596896
:10023400104A0A405A601A6822F0847222F480320A
:100244001A601A6822F480221A605A6822F4FE02A4
:100254005A60DA6A22F00F02DA62196B064A0A401F
:100264001A6300229A60054B4FF000629A6070474F
:10027400001002400CC07FF8CCFC00FF00ED00E051
:1002840082B00190019A044B1A60034B1B68002B47
:10029400FBD102B0704700BF20000020034B1B6855
:1002A4001BB1024A1368013B136070472000002011
:1002B40010B54FF09044636923F020036361C820B4
:1002C400FFF7DEFF636943F020036361C820FFF793
:1002D400D7FF10BD08B50B4B1B680B4AA2FB0323C9
:1002E4009B09023BB3F1807F09D2084A5360084B53
:1002F400F02183F823100023936007231360FFF792
:10030400D7FFFCE700000020D34D621010E000E0AE
:1003140000ED00E070B50D4E0D4CA41BA41000259B
:10032400A54209D10B4E0C4C00F018F8A41BA410E4
:100334000025A54205D170BD56F8253098470135F2
:10034400EEE756F8253098470135F2E778030008C0
:1003540078030008780300087C030008F8B500BFA0
:10036400F8BC08BC9E467047F8B500BFF8BC08BC92
:040374009E467047EA
:04037800B9010008BF
:04037C0095010008DF
:0403800000127A00ED
:04000005080001D519
:00000001FF
