:020000040800F2
:1000000000000120D5010008250200082502000893
:100010002502000825020008250200080000000053
:1000200000000000000000000000000025020008A1
:100030002502000800000000250200089D020008BB
:1000400025020008250200082502000825020008F4
:1000500025020008250200082502000825020008E4
:1000600025020008250200082502000825020008D4
:1000700025020008250200082502000825020008C4
:1000800025020008250200082502000825020008B4
:1000900025020008250200082502000825020008A4
:1000A0002502000825020008250200082502000894
:1000B0002502000825020008250200082502000884
:1000C0002502000825020008250200082502000874
:1000D0002502000825020008250200082502000864
:1000E0002502000825020008250200082502000854
:1000F0002502000825020008250200082502000844
:100100002502000800000000000000002502000891
:100110002502000825020008250200082502000823
:100120002502000825020008250200082502000813
:100130002502000825020008000000000000000061
:100140002502000825020008250200080000000022
:10015000000000000000000000000000000000009F
:1001600025020008250200082502000825020008D3
:1001700025020008250200082502000825020008C3
:100180002502000825020008000000000000000011
:04019000250200083C
:1001940010B5054C237833B9044B13B10448AFF3BD
:1001A40000800123237010BD040000200000000023
:1001B4008003000808B5034B1BB103490348AFF3A0
:1001C400008008BD00000000080000208003000833
:1001D400DFF834D0002103E00C4B5B58435004316A
:1001E4000B480C4B42189A42F6D30B4A02E0002308
:1001F40042F8043B094B9A42F9D300F013F800F09B
:1002040099F800F077F8FEE700000120A003000849
:10021400000000200400002004000020240000202E
:10022400FEE70000124B1A6842F001021A60596896
:10023400104A0A405A601A6822F0847222F480320A
:100244001A601A6822F480221A605A6822F4FE02A4
:100254005A60DA6A22F00F02DA62196B064A0A401F
:100264001A6300229A60054B4FF000629A6070474F
:10027400001002400CC07FF8CCFC00FF00ED00E051
:1002840082B0044B0190019A1A601A68002AFCD1CA
:1002940002B0704720000020034B1A6812B11A689C
:1002A400013A1A60704700BF20000020054A5369D4
:1002B40043F4003353614FF09042136843F4806376
:1002C400136070470010024010B54FF090444FF493
:1002D4007A70636923F020036361FFF7D1FF6369D8
:1002E40043F0200363614FF47A70BDE81040FFF7D8
:1002F400C7BF000008B50C4B4FF47A721B68B3FB00
:10030400F2F3023BB3F1807F09D2084A5360084BF1
:10031400F02183F823100023936007231360FFF771
:10032400C5FFFFF7D1FFFCE70000002010E000E06C
:1003340000ED00E070B50D4E0D4CA41BA41000257B
:10034400A54209D10B4E0C4C00F018F8A41BA410C4
:100354000025A54205D170BD56F8253098470135D2
:10036400EEE756F8253098470135F2E79803000880
:1003740098030008980300089C030008F8B500BF20
:10038400F8BC08BC9E467047F8B500BFF8BC08BC72
:040394009E467047CA
:04039800B90100089F
:04039C0095010008BF
:0403A00000127A00CD
:04000005080001D519
:00000001FF
